{
  "contractName": "WalletSimple",
  "abi": [
    {
      "constant": true,
      "inputs": [
        {
          "name": "",
          "type": "uint256"
        }
      ],
      "name": "signers",
      "outputs": [
        {
          "name": "",
          "type": "address"
        }
      ],
      "payable": false,
      "stateMutability": "view",
      "type": "function"
    },
    {
      "constant": true,
      "inputs": [],
      "name": "safeMode",
      "outputs": [
        {
          "name": "",
          "type": "bool"
        }
      ],
      "payable": false,
      "stateMutability": "view",
      "type": "function"
    },
    {
      "inputs": [
        {
          "name": "allowedSigners",
          "type": "address[]"
        }
      ],
      "payable": false,
      "stateMutability": "nonpayable",
      "type": "constructor"
    },
    {
      "payable": true,
      "stateMutability": "payable",
      "type": "fallback"
    },
    {
      "anonymous": false,
      "inputs": [
        {
          "indexed": false,
          "name": "from",
          "type": "address"
        },
        {
          "indexed": false,
          "name": "value",
          "type": "uint256"
        },
        {
          "indexed": false,
          "name": "data",
          "type": "bytes"
        }
      ],
      "name": "Deposited",
      "type": "event"
    },
    {
      "anonymous": false,
      "inputs": [
        {
          "indexed": false,
          "name": "msgSender",
          "type": "address"
        }
      ],
      "name": "SafeModeActivated",
      "type": "event"
    },
    {
      "anonymous": false,
      "inputs": [
        {
          "indexed": false,
          "name": "msgSender",
          "type": "address"
        },
        {
          "indexed": false,
          "name": "otherSigner",
          "type": "address"
        },
        {
          "indexed": false,
          "name": "operation",
          "type": "bytes32"
        },
        {
          "indexed": false,
          "name": "toAddress",
          "type": "address"
        },
        {
          "indexed": false,
          "name": "value",
          "type": "uint256"
        },
        {
          "indexed": false,
          "name": "data",
          "type": "bytes"
        }
      ],
      "name": "Transacted",
      "type": "event"
    },
    {
      "constant": true,
      "inputs": [
        {
          "name": "signer",
          "type": "address"
        }
      ],
      "name": "isSigner",
      "outputs": [
        {
          "name": "",
          "type": "bool"
        }
      ],
      "payable": false,
      "stateMutability": "view",
      "type": "function"
    },
    {
      "constant": false,
      "inputs": [],
      "name": "createForwarder",
      "outputs": [
        {
          "name": "",
          "type": "address"
        }
      ],
      "payable": false,
      "stateMutability": "nonpayable",
      "type": "function"
    },
    {
      "constant": false,
      "inputs": [
        {
          "name": "toAddress",
          "type": "address"
        },
        {
          "name": "value",
          "type": "uint256"
        },
        {
          "name": "data",
          "type": "bytes"
        },
        {
          "name": "expireTime",
          "type": "uint256"
        },
        {
          "name": "sequenceId",
          "type": "uint256"
        },
        {
          "name": "signature",
          "type": "bytes"
        }
      ],
      "name": "sendMultiSig",
      "outputs": [],
      "payable": false,
      "stateMutability": "nonpayable",
      "type": "function"
    },
    {
      "constant": false,
      "inputs": [
        {
          "name": "toAddress",
          "type": "address"
        },
        {
          "name": "value",
          "type": "uint256"
        },
        {
          "name": "tokenContractAddress",
          "type": "address"
        },
        {
          "name": "expireTime",
          "type": "uint256"
        },
        {
          "name": "sequenceId",
          "type": "uint256"
        },
        {
          "name": "signature",
          "type": "bytes"
        }
      ],
      "name": "sendMultiSigToken",
      "outputs": [],
      "payable": false,
      "stateMutability": "nonpayable",
      "type": "function"
    },
    {
      "constant": false,
      "inputs": [
        {
          "name": "forwarderAddress",
          "type": "address"
        },
        {
          "name": "tokenContractAddress",
          "type": "address"
        }
      ],
      "name": "flushForwarderTokens",
      "outputs": [],
      "payable": false,
      "stateMutability": "nonpayable",
      "type": "function"
    },
    {
      "constant": false,
      "inputs": [],
      "name": "activateSafeMode",
      "outputs": [],
      "payable": false,
      "stateMutability": "nonpayable",
      "type": "function"
    },
    {
      "constant": true,
      "inputs": [],
      "name": "getNextSequenceId",
      "outputs": [
        {
          "name": "",
          "type": "uint256"
        }
      ],
      "payable": false,
      "stateMutability": "view",
      "type": "function"
    }
  ],
  "bytecode": "0x60806040526000600160006101000a81548160ff0219169083151502179055503480156200002c57600080fd5b5060405162001d0038038062001d008339810180604052810190808051820192919050505060038151141515620000cb576040517f08c379a00000000000000000000000000000000000000000000000000000000081526004018080602001828103825260198152602001807f696e76616c6964206e756d626572206f66207369676e6572730000000000000081525060200191505060405180910390fd5b8060009080519060200190620000e3929190620000eb565b5050620001c0565b82805482825590600052602060002090810192821562000167579160200282015b82811115620001665782518260006101000a81548173ffffffffffffffffffffffffffffffffffffffff021916908373ffffffffffffffffffffffffffffffffffffffff160217905550916020019190600101906200010c565b5b5090506200017691906200017a565b5090565b620001bd91905b80821115620001b957600081816101000a81549073ffffffffffffffffffffffffffffffffffffffff02191690555060010162000181565b5090565b90565b611b3080620001d06000396000f300608060405260043610610099576000357c0100000000000000000000000000000000000000000000000000000000900463ffffffff1680630dcd7a6c146101335780632079fb9a146101fa5780632da034091461026757806339125215146102ca5780637df73e27146103b7578063a0b7967b14610412578063a68a76cc1461043d578063abe3219c14610494578063fc0f392d146104c3575b6000341115610131577f6e89d517057028190560dd200cf6bf792842861353d1173761dfa362e1c133f03334600036604051808573ffffffffffffffffffffffffffffffffffffffff1673ffffffffffffffffffffffffffffffffffffffff16815260200184815260200180602001828103825284848281815260200192508082843782019150509550505050505060405180910390a15b005b34801561013f57600080fd5b506101f8600480360381019080803573ffffffffffffffffffffffffffffffffffffffff16906020019092919080359060200190929190803573ffffffffffffffffffffffffffffffffffffffff1690602001909291908035906020019092919080359060200190929190803590602001908201803590602001908080601f01602080910402602001604051908101604052809392919081815260200183838082843782019150505050505091929192905050506104da565b005b34801561020657600080fd5b506102256004803603810190808035906020019092919050505061079d565b604051808273ffffffffffffffffffffffffffffffffffffffff1673ffffffffffffffffffffffffffffffffffffffff16815260200191505060405180910390f35b34801561027357600080fd5b506102c8600480360381019080803573ffffffffffffffffffffffffffffffffffffffff169060200190929190803573ffffffffffffffffffffffffffffffffffffffff1690602001909291905050506107db565b005b3480156102d657600080fd5b506103b5600480360381019080803573ffffffffffffffffffffffffffffffffffffffff16906020019092919080359060200190929190803590602001908201803590602001908080601f01602080910402602001604051908101604052809392919081815260200183838082843782019150505050505091929192908035906020019092919080359060200190929190803590602001908201803590602001908080601f0160208091040260200160405190810160405280939291908181526020018383808284378201915050505050509192919290505050610915565b005b3480156103c357600080fd5b506103f8600480360381019080803573ffffffffffffffffffffffffffffffffffffffff169060200190929190505050610ce2565b604051808215151515815260200191505060405180910390f35b34801561041e57600080fd5b50610427610d85565b6040518082815260200191505060405180910390f35b34801561044957600080fd5b50610452610ddf565b604051808273ffffffffffffffffffffffffffffffffffffffff1673ffffffffffffffffffffffffffffffffffffffff16815260200191505060405180910390f35b3480156104a057600080fd5b506104a9610e0b565b604051808215151515815260200191505060405180910390f35b3480156104cf57600080fd5b506104d8610e1e565b005b6000806104e633610ce2565b151561055a576040517f08c379a00000000000000000000000000000000000000000000000000000000081526004018080602001828103825260098152602001807f6e6f207369676e6572000000000000000000000000000000000000000000000081525060200191505060405180910390fd5b878787878760405180807f45524332300000000000000000000000000000000000000000000000000000008152506005018673ffffffffffffffffffffffffffffffffffffffff1673ffffffffffffffffffffffffffffffffffffffff166c010000000000000000000000000281526014018581526020018473ffffffffffffffffffffffffffffffffffffffff1673ffffffffffffffffffffffffffffffffffffffff166c01000000000000000000000000028152601401838152602001828152602001955050505050506040518091039020915061063d8883858888610f1a565b508590508073ffffffffffffffffffffffffffffffffffffffff1663a9059cbb89896040518363ffffffff167c0100000000000000000000000000000000000000000000000000000000028152600401808373ffffffffffffffffffffffffffffffffffffffff1673ffffffffffffffffffffffffffffffffffffffff16815260200182815260200192505050602060405180830381600087803b1580156106e457600080fd5b505af11580156106f8573d6000803e3d6000fd5b505050506040513d602081101561070e57600080fd5b81019080805190602001909291905050501515610793576040517f08c379a000000000000000000000000000000000000000000000000000000000815260040180806020018281038252600d8152602001807f73656e64206d756c74697369670000000000000000000000000000000000000081525060200191505060405180910390fd5b5050505050505050565b6000818154811015156107ac57fe5b906000526020600020016000915054906101000a900473ffffffffffffffffffffffffffffffffffffffff1681565b60006107e633610ce2565b151561085a576040517f08c379a00000000000000000000000000000000000000000000000000000000081526004018080602001828103825260098152602001807f6e6f207369676e6572000000000000000000000000000000000000000000000081525060200191505060405180910390fd5b8290508073ffffffffffffffffffffffffffffffffffffffff16633ef13367836040518263ffffffff167c0100000000000000000000000000000000000000000000000000000000028152600401808273ffffffffffffffffffffffffffffffffffffffff1673ffffffffffffffffffffffffffffffffffffffff168152602001915050600060405180830381600087803b1580156108f857600080fd5b505af115801561090c573d6000803e3d6000fd5b50505050505050565b60008061092133610ce2565b1515610995576040517f08c379a00000000000000000000000000000000000000000000000000000000081526004018080602001828103825260098152602001807f6e6f207369676e6572000000000000000000000000000000000000000000000081525060200191505060405180910390fd5b878787878760405180807f45544845520000000000000000000000000000000000000000000000000000008152506005018673ffffffffffffffffffffffffffffffffffffffff1673ffffffffffffffffffffffffffffffffffffffff166c0100000000000000000000000002815260140185815260200184805190602001908083835b602083101515610a3e5780518252602082019150602081019050602083039250610a19565b6001836020036101000a0380198251168184511680821785525050505050509050018381526020018281526020019550505050505060405180910390209150610a8a8883858888610f1a565b90508773ffffffffffffffffffffffffffffffffffffffff16878760405180828051906020019080838360005b83811015610ad2578082015181840152602081019050610ab7565b50505050905090810190601f168015610aff5780820380516001836020036101000a031916815260200191505b5091505060006040518083038185875af1925050501515610b88576040517f08c379a00000000000000000000000000000000000000000000000000000000081526004018080602001828103825260138152602001807f6661696c656420657865637574696e672074780000000000000000000000000081525060200191505060405180910390fd5b7f59bed9ab5d78073465dd642a9e3e76dfdb7d53bcae9d09df7d0b8f5234d5a8063382848b8b8b604051808773ffffffffffffffffffffffffffffffffffffffff1673ffffffffffffffffffffffffffffffffffffffff1681526020018673ffffffffffffffffffffffffffffffffffffffff1673ffffffffffffffffffffffffffffffffffffffff16815260200185600019166000191681526020018473ffffffffffffffffffffffffffffffffffffffff1673ffffffffffffffffffffffffffffffffffffffff16815260200183815260200180602001828103825283818151815260200191508051906020019080838360005b83811015610c99578082015181840152602081019050610c7e565b50505050905090810190601f168015610cc65780820380516001836020036101000a031916815260200191505b5097505050505050505060405180910390a15050505050505050565b600080600090505b600080549050811015610d7a578273ffffffffffffffffffffffffffffffffffffffff16600082815481101515610d1d57fe5b9060005260206000200160009054906101000a900473ffffffffffffffffffffffffffffffffffffffff1673ffffffffffffffffffffffffffffffffffffffff161415610d6d5760019150610d7f565b8080600101915050610cea565b600091505b50919050565b6000806000809150600090505b600a811015610dd45781600282600a81101515610dab57fe5b01541115610dc757600281600a81101515610dc257fe5b015491505b8080600101915050610d92565b600182019250505090565b6000610de9611566565b604051809103906000f080158015610e05573d6000803e3d6000fd5b50905090565b600160009054906101000a900460ff1681565b610e2733610ce2565b1515610e9b576040517f08c379a00000000000000000000000000000000000000000000000000000000081526004018080602001828103825260098152602001807f6e6f207369676e6572000000000000000000000000000000000000000000000081525060200191505060405180910390fd5b60018060006101000a81548160ff0219169083151502179055507f0909e8f76a4fd3e970f2eaef56c0ee6dfaf8b87c5b8d3f56ffce78e825a9115733604051808273ffffffffffffffffffffffffffffffffffffffff1673ffffffffffffffffffffffffffffffffffffffff16815260200191505060405180910390a1565b600080610f27868661118f565b9050600160009054906101000a900460ff168015610f4b5750610f4987610ce2565b155b15610fe4576040517f08c379a000000000000000000000000000000000000000000000000000000000815260040180806020018281038252602b8152602001807f696e2073616665206d6f646520616e6420746f2061646472657373206973206e81526020017f6f742061207369676e657200000000000000000000000000000000000000000081525060400191505060405180910390fd5b4284101561105a576040517f08c379a00000000000000000000000000000000000000000000000000000000081526004018080602001828103825260078152602001807f657870697265640000000000000000000000000000000000000000000000000081525060200191505060405180910390fd5b611063836112c5565b61106c81610ce2565b15156110e0576040517f08c379a000000000000000000000000000000000000000000000000000000000815260040180806020018281038252600c8152602001807f77726f6e67207369676e6572000000000000000000000000000000000000000081525060200191505060405180910390fd5b3373ffffffffffffffffffffffffffffffffffffffff168173ffffffffffffffffffffffffffffffffffffffff161415611182576040517f08c379a00000000000000000000000000000000000000000000000000000000081526004018080602001828103825260158152602001807f63616e6e6f7420617070726f7665206f776e207478000000000000000000000081525060200191505060405180910390fd5b8091505095945050505050565b6000806000806041855114151561120e576040517f08c379a00000000000000000000000000000000000000000000000000000000081526004018080602001828103825260138152602001807f696e636f7272656374207369676e61747572650000000000000000000000000081525060200191505060405180910390fd5b602085015192506040850151915060ff6041860151169050601b8160ff16101561123957601b810190505b600186828585604051600081526020016040526040518085600019166000191681526020018460ff1660ff1681526020018360001916600019168152602001826000191660001916815260200194505050505060206040516020810390808403906000865af11580156112b0573d6000803e3d6000fd5b50505060206040510351935050505092915050565b6000806112d133610ce2565b1515611345576040517f08c379a00000000000000000000000000000000000000000000000000000000081526004018080602001828103825260098152602001807f6e6f207369676e6572000000000000000000000000000000000000000000000081525060200191505060405180910390fd5b60009150600090505b600a8110156114165782600282600a8110151561136757fe5b015414156113dd576040517f08c379a00000000000000000000000000000000000000000000000000000000081526004018080602001828103825260188152602001807f73657175656e63652069642075736564206265666f726520000000000000000081525060200191505060405180910390fd5b600282600a811015156113ec57fe5b0154600282600a811015156113fd57fe5b01541015611409578091505b808060010191505061134e565b600282600a8110151561142557fe5b01548310156114c2576040517f08c379a00000000000000000000000000000000000000000000000000000000081526004018080602001828103825260358152602001807f73657175656e6365206964206c6f776572207468616e20746865206c6f77657381526020017f742076616c756520696e207468652077696e646f77000000000000000000000081525060400191505060405180910390fd5b612710600283600a811015156114d457fe5b01540183111561154c576040517f08c379a00000000000000000000000000000000000000000000000000000000081526004018080602001828103825260138152602001807f746f6f206269672073657175656e63652069640000000000000000000000000081525060200191505060405180910390fd5b82600283600a8110151561155c57fe5b0181905550505050565b60405161058e80611577833901905600608060405234801561001057600080fd5b50336000806101000a81548173ffffffffffffffffffffffffffffffffffffffff021916908373ffffffffffffffffffffffffffffffffffffffff16021790555061052e806100606000396000f300608060405260043610610056576000357c0100000000000000000000000000000000000000000000000000000000900463ffffffff168062821de31461014e5780633ef13367146101a55780636b9f96ea146101e8575b6000809054906101000a900473ffffffffffffffffffffffffffffffffffffffff1673ffffffffffffffffffffffffffffffffffffffff166108fc349081150290604051600060405180830381858888f193505050501580156100bd573d6000803e3d6000fd5b507f69b31548dea9b3b707b4dff357d326e3e9348b24e7a6080a218a6edeeec48f9b3334600036604051808573ffffffffffffffffffffffffffffffffffffffff1673ffffffffffffffffffffffffffffffffffffffff16815260200184815260200180602001828103825284848281815260200192508082843782019150509550505050505060405180910390a1005b34801561015a57600080fd5b506101636101ff565b604051808273ffffffffffffffffffffffffffffffffffffffff1673ffffffffffffffffffffffffffffffffffffffff16815260200191505060405180910390f35b3480156101b157600080fd5b506101e6600480360381019080803573ffffffffffffffffffffffffffffffffffffffff169060200190929190505050610224565b005b3480156101f457600080fd5b506101fd610481565b005b6000809054906101000a900473ffffffffffffffffffffffffffffffffffffffff1681565b60008060008060009054906101000a900473ffffffffffffffffffffffffffffffffffffffff1673ffffffffffffffffffffffffffffffffffffffff163373ffffffffffffffffffffffffffffffffffffffff1614151561028457600080fd5b8392503091508273ffffffffffffffffffffffffffffffffffffffff166370a08231836040518263ffffffff167c0100000000000000000000000000000000000000000000000000000000028152600401808273ffffffffffffffffffffffffffffffffffffffff1673ffffffffffffffffffffffffffffffffffffffff168152602001915050602060405180830381600087803b15801561032557600080fd5b505af1158015610339573d6000803e3d6000fd5b505050506040513d602081101561034f57600080fd5b8101908080519060200190929190505050905060008114156103705761047b565b8273ffffffffffffffffffffffffffffffffffffffff1663a9059cbb6000809054906101000a900473ffffffffffffffffffffffffffffffffffffffff16836040518363ffffffff167c0100000000000000000000000000000000000000000000000000000000028152600401808373ffffffffffffffffffffffffffffffffffffffff1673ffffffffffffffffffffffffffffffffffffffff16815260200182815260200192505050602060405180830381600087803b15801561043457600080fd5b505af1158015610448573d6000803e3d6000fd5b505050506040513d602081101561045e57600080fd5b8101908080519060200190929190505050151561047a57600080fd5b5b50505050565b6000809054906101000a900473ffffffffffffffffffffffffffffffffffffffff1673ffffffffffffffffffffffffffffffffffffffff166108fc3073ffffffffffffffffffffffffffffffffffffffff16319081150290604051600060405180830381858888f193505050501580156104ff573d6000803e3d6000fd5b505600a165627a7a72305820ad30e94f03e25406a7dba2cb03d9618868b21f909f612713269d4e67c5ef60dc0029a165627a7a723058200881813d7f1bc04b982fac8bd40af90f784722ca7e419d3116634bd104b6ad5c0029",
  "source": "pragma solidity ^0.4.18;\nimport \"./Forwarder.sol\";\nimport \"./ERC20Interface.sol\";\n/**\n *\n * WalletSimple\n * ============\n *\n * Basic multi-signer wallet designed for use in a co-signing environment where 2 signatures are required to move funds.\n * Typically used in a 2-of-3 signing configuration. Uses ecrecover to allow for 2 signatures in a single transaction.\n *\n * The first signature is created on the operation hash (see Data Formats) and passed to sendMultiSig/sendMultiSigToken\n * The signer is determined by verifyMultiSig().\n *\n * The second signature is created by the submitter of the transaction and determined by msg.signer.\n *\n * Data Formats\n * ============\n *\n * The signature is created with ethereumjs-util.ecsign(operationHash).\n * Like the eth_sign RPC call, it packs the values as a 65-byte array of [r, s, v].\n * Unlike eth_sign, the message is not prefixed.\n *\n * The operationHash the result of keccak256(prefix, toAddress, value, data, expireTime).\n * For ether transactions, `prefix` is \"ETHER\".\n * For token transaction, `prefix` is \"ERC20\" and `data` is the tokenContractAddress.\n *\n *\n */\ncontract WalletSimple {\n  // Events\n  event Deposited(address from, uint value, bytes data);\n  event SafeModeActivated(address msgSender);\n  event Transacted(\n    address msgSender, // Address of the sender of the message initiating the transaction\n    address otherSigner, // Address of the signer (second signature) used to initiate the transaction\n    bytes32 operation, // Operation hash (see Data Formats)\n    address toAddress, // The address the transaction was sent to\n    uint value, // Amount of Wei sent to the address\n    bytes data // Data sent when invoking the transaction\n  );\n\n  // Public fields\n  address[] public signers; // The addresses that can co-sign transactions on the wallet\n  bool public safeMode = false; // When active, wallet may only send to signer addresses\n\n  // Internal fields\n  uint constant SEQUENCE_ID_WINDOW_SIZE = 10;\n  uint[10] recentSequenceIds;\n\n  /**\n   * Set up a simple multi-sig wallet by specifying the signers allowed to be used on this wallet.\n   * 2 signers will be required to send a transaction from this wallet.\n   * Note: The sender is NOT automatically added to the list of signers.\n   * Signers CANNOT be changed once they are set\n   *\n   * @param allowedSigners An array of signers on the wallet\n   */\n  function WalletSimple(address[] allowedSigners) public {\n    if (allowedSigners.length != 3) {\n      // Invalid number of signers\n      revert('invalid number of signers');\n    }\n    signers = allowedSigners;\n  }\n\n  /**\n   * Determine if an address is a signer on this wallet\n   * @param signer address to check\n   * returns boolean indicating whether address is signer or not\n   */\n  function isSigner(address signer) public view returns (bool) {\n    // Iterate through all signers on the wallet and\n    for (uint i = 0; i < signers.length; i++) {\n      if (signers[i] == signer) {\n        return true;\n      }\n    }\n    return false;\n  }\n\n  /**\n   * Modifier that will execute internal code block only if the sender is an authorized signer on this wallet\n   */\n  modifier onlySigner {\n    if (!isSigner(msg.sender)) {\n      revert('no signer');\n    }\n    _;\n  }\n\n  /**\n   * Gets called when a transaction is received without calling a method\n   */\n  function() public payable {\n    if (msg.value > 0) {\n      // Fire deposited event if we are receiving funds\n      Deposited(msg.sender, msg.value, msg.data);\n    }\n  }\n\n  /**\n   * Create a new contract (and also address) that forwards funds to this contract\n   * returns address of newly created forwarder address\n   */\n  function createForwarder() public returns (address) {\n    return new Forwarder();\n  }\n\n  /**\n   * Execute a multi-signature transaction from this wallet using 2 signers: one from msg.sender and the other from ecrecover.\n   * Sequence IDs are numbers starting from 1. They are used to prevent replay attacks and may not be repeated.\n   *\n   * @param toAddress the destination address to send an outgoing transaction\n   * @param value the amount in Wei to be sent\n   * @param data the data to send to the toAddress when invoking the transaction\n   * @param expireTime the number of seconds since 1970 for which this transaction is valid\n   * @param sequenceId the unique sequence id obtainable from getNextSequenceId\n   * @param signature see Data Formats\n   */\n  function sendMultiSig(\n      address toAddress,\n      uint value,\n      bytes data,\n      uint expireTime,\n      uint sequenceId,\n      bytes signature\n  ) public onlySigner {\n    // Verify the other signer\n    var operationHash = keccak256(\"ETHER\", toAddress, value, data, expireTime, sequenceId);\n    \n    var otherSigner = verifyMultiSig(toAddress, operationHash, signature, expireTime, sequenceId);\n\n    // Success, send the transaction\n    if (!(toAddress.call.value(value)(data))) {\n      // Failed executing transaction\n      revert('failed executing tx');\n    }\n    Transacted(msg.sender, otherSigner, operationHash, toAddress, value, data);\n  }\n  \n  /**\n   * Execute a multi-signature token transfer from this wallet using 2 signers: one from msg.sender and the other from ecrecover.\n   * Sequence IDs are numbers starting from 1. They are used to prevent replay attacks and may not be repeated.\n   *\n   * @param toAddress the destination address to send an outgoing transaction\n   * @param value the amount in tokens to be sent\n   * @param tokenContractAddress the address of the erc20 token contract\n   * @param expireTime the number of seconds since 1970 for which this transaction is valid\n   * @param sequenceId the unique sequence id obtainable from getNextSequenceId\n   * @param signature see Data Formats\n   */\n  function sendMultiSigToken(\n      address toAddress,\n      uint value,\n      address tokenContractAddress,\n      uint expireTime,\n      uint sequenceId,\n      bytes signature\n  ) public onlySigner {\n    // Verify the other signer\n    var operationHash = keccak256(\"ERC20\", toAddress, value, tokenContractAddress, expireTime, sequenceId);\n    \n    verifyMultiSig(toAddress, operationHash, signature, expireTime, sequenceId);\n    \n    ERC20Interface instance = ERC20Interface(tokenContractAddress);\n    if (!instance.transfer(toAddress, value)) {\n        revert('send multisig');\n    }\n  }\n  \n  /**\n   * Execute a token flush from one of the forwarder addresses. This transfer needs only a single signature and can be done by any signer\n   *\n   * @param forwarderAddress the address of the forwarder address to flush the tokens from\n   * @param tokenContractAddress the address of the erc20 token contract\n   */\n  function flushForwarderTokens(\n    address forwarderAddress, \n    address tokenContractAddress\n  ) public onlySigner {\n    Forwarder forwarder = Forwarder(forwarderAddress);\n    forwarder.flushTokens(tokenContractAddress);\n  }\n\n  /**\n   * Do common multisig verification for both eth sends and erc20token transfers\n   *\n   * @param toAddress the destination address to send an outgoing transaction\n   * @param operationHash see Data Formats\n   * @param signature see Data Formats\n   * @param expireTime the number of seconds since 1970 for which this transaction is valid\n   * @param sequenceId the unique sequence id obtainable from getNextSequenceId\n   * returns address that has created the signature\n   */\n  function verifyMultiSig(\n      address toAddress,\n      bytes32 operationHash,\n      bytes signature,\n      uint expireTime,\n      uint sequenceId\n  ) private returns (address) {\n\n    var otherSigner = recoverAddressFromSignature(operationHash, signature);\n\n    // Verify if we are in safe mode. In safe mode, the wallet can only send to signers\n    if (safeMode && !isSigner(toAddress)) {\n      // We are in safe mode and the toAddress is not a signer. Disallow!\n      revert('in safe mode and to address is not a signer');\n    }\n    // Verify that the transaction has not expired\n    if (expireTime < block.timestamp) {\n      // Transaction expired\n      revert('expired');\n    }\n\n    // Try to insert the sequence ID. Will revert if the sequence id was invalid\n    tryInsertSequenceId(sequenceId);\n\n    if (!isSigner(otherSigner)) {\n      // Other signer not on this wallet or operation does not match arguments\n      revert('wrong signer');\n    }\n    if (otherSigner == msg.sender) {\n      // Cannot approve own transaction\n      revert('cannot approve own tx');\n    }\n\n    return otherSigner;\n  }\n\n  /**\n   * Irrevocably puts contract into safe mode. When in this mode, transactions may only be sent to signing addresses.\n   */\n  function activateSafeMode() public onlySigner {\n    safeMode = true;\n    SafeModeActivated(msg.sender);\n  }\n\n  /**\n   * Gets signer's address using ecrecover\n   * @param operationHash see Data Formats\n   * @param signature see Data Formats\n   * returns address recovered from the signature\n   */\n  function recoverAddressFromSignature(\n    bytes32 operationHash,\n    bytes signature\n  ) private pure returns (address) {\n    if (signature.length != 65) {\n      revert('incorrect signature');\n    }\n    // We need to unpack the signature, which is given as an array of 65 bytes (like eth.sign)\n    bytes32 r;\n    bytes32 s;\n    uint8 v;\n    assembly {\n      r := mload(add(signature, 32))\n      s := mload(add(signature, 64))\n      v := and(mload(add(signature, 65)), 255)\n    }\n    if (v < 27) {\n      v += 27; // Ethereum versions are 27 or 28 as opposed to 0 or 1 which is submitted by some signing libs\n    }\n    return ecrecover(operationHash, v, r, s);\n  }\n\n  /**\n   * Verify that the sequence id has not been used before and inserts it. Throws if the sequence ID was not accepted.\n   * We collect a window of up to 10 recent sequence ids, and allow any sequence id that is not in the window and\n   * greater than the minimum element in the window.\n   * @param sequenceId to insert into array of stored ids\n   */\n  function tryInsertSequenceId(uint sequenceId) private onlySigner {\n    // Keep a pointer to the lowest value element in the window\n    uint lowestValueIndex = 0;\n    for (uint i = 0; i < SEQUENCE_ID_WINDOW_SIZE; i++) {\n      if (recentSequenceIds[i] == sequenceId) {\n        // This sequence ID has been used before. Disallow!\n        revert('sequence id used before ');\n      }\n      if (recentSequenceIds[i] < recentSequenceIds[lowestValueIndex]) {\n        lowestValueIndex = i;\n      }\n    }\n    if (sequenceId < recentSequenceIds[lowestValueIndex]) {\n      // The sequence ID being used is lower than the lowest value in the window\n      // so we cannot accept it as it may have been used before\n      revert('sequence id lower than the lowest value in the window');\n    }\n    if (sequenceId > (recentSequenceIds[lowestValueIndex] + 10000)) {\n      // Block sequence IDs which are much higher than the lowest value\n      // This prevents people blocking the contract by using very large sequence IDs quickly\n      revert('too big sequence id');\n    }\n    recentSequenceIds[lowestValueIndex] = sequenceId;\n  }\n\n  /**\n   * Gets the next available sequence ID for signing when using executeAndConfirm\n   * returns the sequenceId one higher than the highest currently stored\n   */\n  function getNextSequenceId() public view returns (uint) {\n    uint highestSequenceId = 0;\n    for (uint i = 0; i < SEQUENCE_ID_WINDOW_SIZE; i++) {\n      if (recentSequenceIds[i] > highestSequenceId) {\n        highestSequenceId = recentSequenceIds[i];\n      }\n    }\n    return highestSequenceId + 1;\n  }\n}\n",
  "sourcePath": "/Users/oleksiishevchenko/Development/projects/blockchainCourse/ico-boilerplate/ethContracts/contracts/WalletSimple.sol",
  "compiler": {
    "name": "solc",
    "version": "0.4.24+commit.e67f0147.Emscripten.clang"
  },
  "schemaVersion": "2.0.1",
  "updatedAt": "2019-06-05T17:13:59.635Z"
}